{
  "_format": "hh-sol-artifact-1",
  "contractName": "CryptoDevs",
  "sourceName": "contracts/CryptoDevs.sol",
  "abi": [
    {
      "inputs": [
        {
          "internalType": "string",
          "name": "baseURI",
          "type": "string"
        },
        {
          "internalType": "address",
          "name": "whitelistContract",
          "type": "address"
        }
      ],
      "stateMutability": "nonpayable",
      "type": "constructor"
    },
    {
      "inputs": [],
      "name": "ERC721EnumerableForbiddenBatchMint",
      "type": "error"
    },
    {
      "inputs": [
        {
          "internalType": "address",
          "name": "sender",
          "type": "address"
        },
        {
          "internalType": "uint256",
          "name": "tokenId",
          "type": "uint256"
        },
        {
          "internalType": "address",
          "name": "owner",
          "type": "address"
        }
      ],
      "name": "ERC721IncorrectOwner",
      "type": "error"
    },
    {
      "inputs": [
        {
          "internalType": "address",
          "name": "operator",
          "type": "address"
        },
        {
          "internalType": "uint256",
          "name": "tokenId",
          "type": "uint256"
        }
      ],
      "name": "ERC721InsufficientApproval",
      "type": "error"
    },
    {
      "inputs": [
        {
          "internalType": "address",
          "name": "approver",
          "type": "address"
        }
      ],
      "name": "ERC721InvalidApprover",
      "type": "error"
    },
    {
      "inputs": [
        {
          "internalType": "address",
          "name": "operator",
          "type": "address"
        }
      ],
      "name": "ERC721InvalidOperator",
      "type": "error"
    },
    {
      "inputs": [
        {
          "internalType": "address",
          "name": "owner",
          "type": "address"
        }
      ],
      "name": "ERC721InvalidOwner",
      "type": "error"
    },
    {
      "inputs": [
        {
          "internalType": "address",
          "name": "receiver",
          "type": "address"
        }
      ],
      "name": "ERC721InvalidReceiver",
      "type": "error"
    },
    {
      "inputs": [
        {
          "internalType": "address",
          "name": "sender",
          "type": "address"
        }
      ],
      "name": "ERC721InvalidSender",
      "type": "error"
    },
    {
      "inputs": [
        {
          "internalType": "uint256",
          "name": "tokenId",
          "type": "uint256"
        }
      ],
      "name": "ERC721NonexistentToken",
      "type": "error"
    },
    {
      "inputs": [
        {
          "internalType": "address",
          "name": "owner",
          "type": "address"
        },
        {
          "internalType": "uint256",
          "name": "index",
          "type": "uint256"
        }
      ],
      "name": "ERC721OutOfBoundsIndex",
      "type": "error"
    },
    {
      "inputs": [
        {
          "internalType": "address",
          "name": "owner",
          "type": "address"
        }
      ],
      "name": "OwnableInvalidOwner",
      "type": "error"
    },
    {
      "inputs": [
        {
          "internalType": "address",
          "name": "account",
          "type": "address"
        }
      ],
      "name": "OwnableUnauthorizedAccount",
      "type": "error"
    },
    {
      "anonymous": false,
      "inputs": [
        {
          "indexed": true,
          "internalType": "address",
          "name": "owner",
          "type": "address"
        },
        {
          "indexed": true,
          "internalType": "address",
          "name": "approved",
          "type": "address"
        },
        {
          "indexed": true,
          "internalType": "uint256",
          "name": "tokenId",
          "type": "uint256"
        }
      ],
      "name": "Approval",
      "type": "event"
    },
    {
      "anonymous": false,
      "inputs": [
        {
          "indexed": true,
          "internalType": "address",
          "name": "owner",
          "type": "address"
        },
        {
          "indexed": true,
          "internalType": "address",
          "name": "operator",
          "type": "address"
        },
        {
          "indexed": false,
          "internalType": "bool",
          "name": "approved",
          "type": "bool"
        }
      ],
      "name": "ApprovalForAll",
      "type": "event"
    },
    {
      "anonymous": false,
      "inputs": [
        {
          "indexed": true,
          "internalType": "address",
          "name": "previousOwner",
          "type": "address"
        },
        {
          "indexed": true,
          "internalType": "address",
          "name": "newOwner",
          "type": "address"
        }
      ],
      "name": "OwnershipTransferred",
      "type": "event"
    },
    {
      "anonymous": false,
      "inputs": [
        {
          "indexed": true,
          "internalType": "address",
          "name": "from",
          "type": "address"
        },
        {
          "indexed": true,
          "internalType": "address",
          "name": "to",
          "type": "address"
        },
        {
          "indexed": true,
          "internalType": "uint256",
          "name": "tokenId",
          "type": "uint256"
        }
      ],
      "name": "Transfer",
      "type": "event"
    },
    {
      "stateMutability": "payable",
      "type": "fallback"
    },
    {
      "inputs": [],
      "name": "_paused",
      "outputs": [
        {
          "internalType": "bool",
          "name": "",
          "type": "bool"
        }
      ],
      "stateMutability": "view",
      "type": "function"
    },
    {
      "inputs": [],
      "name": "_price",
      "outputs": [
        {
          "internalType": "uint256",
          "name": "",
          "type": "uint256"
        }
      ],
      "stateMutability": "view",
      "type": "function"
    },
    {
      "inputs": [
        {
          "internalType": "address",
          "name": "to",
          "type": "address"
        },
        {
          "internalType": "uint256",
          "name": "tokenId",
          "type": "uint256"
        }
      ],
      "name": "approve",
      "outputs": [],
      "stateMutability": "nonpayable",
      "type": "function"
    },
    {
      "inputs": [
        {
          "internalType": "address",
          "name": "owner",
          "type": "address"
        }
      ],
      "name": "balanceOf",
      "outputs": [
        {
          "internalType": "uint256",
          "name": "",
          "type": "uint256"
        }
      ],
      "stateMutability": "view",
      "type": "function"
    },
    {
      "inputs": [
        {
          "internalType": "uint256",
          "name": "tokenId",
          "type": "uint256"
        }
      ],
      "name": "getApproved",
      "outputs": [
        {
          "internalType": "address",
          "name": "",
          "type": "address"
        }
      ],
      "stateMutability": "view",
      "type": "function"
    },
    {
      "inputs": [
        {
          "internalType": "address",
          "name": "owner",
          "type": "address"
        },
        {
          "internalType": "address",
          "name": "operator",
          "type": "address"
        }
      ],
      "name": "isApprovedForAll",
      "outputs": [
        {
          "internalType": "bool",
          "name": "",
          "type": "bool"
        }
      ],
      "stateMutability": "view",
      "type": "function"
    },
    {
      "inputs": [],
      "name": "maxTokenIds",
      "outputs": [
        {
          "internalType": "uint256",
          "name": "",
          "type": "uint256"
        }
      ],
      "stateMutability": "view",
      "type": "function"
    },
    {
      "inputs": [],
      "name": "mint",
      "outputs": [],
      "stateMutability": "payable",
      "type": "function"
    },
    {
      "inputs": [],
      "name": "name",
      "outputs": [
        {
          "internalType": "string",
          "name": "",
          "type": "string"
        }
      ],
      "stateMutability": "view",
      "type": "function"
    },
    {
      "inputs": [],
      "name": "owner",
      "outputs": [
        {
          "internalType": "address",
          "name": "",
          "type": "address"
        }
      ],
      "stateMutability": "view",
      "type": "function"
    },
    {
      "inputs": [
        {
          "internalType": "uint256",
          "name": "tokenId",
          "type": "uint256"
        }
      ],
      "name": "ownerOf",
      "outputs": [
        {
          "internalType": "address",
          "name": "",
          "type": "address"
        }
      ],
      "stateMutability": "view",
      "type": "function"
    },
    {
      "inputs": [],
      "name": "presaleEnded",
      "outputs": [
        {
          "internalType": "uint256",
          "name": "",
          "type": "uint256"
        }
      ],
      "stateMutability": "view",
      "type": "function"
    },
    {
      "inputs": [],
      "name": "presaleMint",
      "outputs": [],
      "stateMutability": "payable",
      "type": "function"
    },
    {
      "inputs": [],
      "name": "presaleStarted",
      "outputs": [
        {
          "internalType": "bool",
          "name": "",
          "type": "bool"
        }
      ],
      "stateMutability": "view",
      "type": "function"
    },
    {
      "inputs": [],
      "name": "renounceOwnership",
      "outputs": [],
      "stateMutability": "nonpayable",
      "type": "function"
    },
    {
      "inputs": [
        {
          "internalType": "address",
          "name": "from",
          "type": "address"
        },
        {
          "internalType": "address",
          "name": "to",
          "type": "address"
        },
        {
          "internalType": "uint256",
          "name": "tokenId",
          "type": "uint256"
        }
      ],
      "name": "safeTransferFrom",
      "outputs": [],
      "stateMutability": "nonpayable",
      "type": "function"
    },
    {
      "inputs": [
        {
          "internalType": "address",
          "name": "from",
          "type": "address"
        },
        {
          "internalType": "address",
          "name": "to",
          "type": "address"
        },
        {
          "internalType": "uint256",
          "name": "tokenId",
          "type": "uint256"
        },
        {
          "internalType": "bytes",
          "name": "data",
          "type": "bytes"
        }
      ],
      "name": "safeTransferFrom",
      "outputs": [],
      "stateMutability": "nonpayable",
      "type": "function"
    },
    {
      "inputs": [
        {
          "internalType": "address",
          "name": "operator",
          "type": "address"
        },
        {
          "internalType": "bool",
          "name": "approved",
          "type": "bool"
        }
      ],
      "name": "setApprovalForAll",
      "outputs": [],
      "stateMutability": "nonpayable",
      "type": "function"
    },
    {
      "inputs": [
        {
          "internalType": "bool",
          "name": "val",
          "type": "bool"
        }
      ],
      "name": "setPaused",
      "outputs": [],
      "stateMutability": "nonpayable",
      "type": "function"
    },
    {
      "inputs": [],
      "name": "startPresale",
      "outputs": [],
      "stateMutability": "nonpayable",
      "type": "function"
    },
    {
      "inputs": [
        {
          "internalType": "bytes4",
          "name": "interfaceId",
          "type": "bytes4"
        }
      ],
      "name": "supportsInterface",
      "outputs": [
        {
          "internalType": "bool",
          "name": "",
          "type": "bool"
        }
      ],
      "stateMutability": "view",
      "type": "function"
    },
    {
      "inputs": [],
      "name": "symbol",
      "outputs": [
        {
          "internalType": "string",
          "name": "",
          "type": "string"
        }
      ],
      "stateMutability": "view",
      "type": "function"
    },
    {
      "inputs": [
        {
          "internalType": "uint256",
          "name": "index",
          "type": "uint256"
        }
      ],
      "name": "tokenByIndex",
      "outputs": [
        {
          "internalType": "uint256",
          "name": "",
          "type": "uint256"
        }
      ],
      "stateMutability": "view",
      "type": "function"
    },
    {
      "inputs": [],
      "name": "tokenIds",
      "outputs": [
        {
          "internalType": "uint256",
          "name": "",
          "type": "uint256"
        }
      ],
      "stateMutability": "view",
      "type": "function"
    },
    {
      "inputs": [
        {
          "internalType": "address",
          "name": "owner",
          "type": "address"
        },
        {
          "internalType": "uint256",
          "name": "index",
          "type": "uint256"
        }
      ],
      "name": "tokenOfOwnerByIndex",
      "outputs": [
        {
          "internalType": "uint256",
          "name": "",
          "type": "uint256"
        }
      ],
      "stateMutability": "view",
      "type": "function"
    },
    {
      "inputs": [
        {
          "internalType": "uint256",
          "name": "tokenId",
          "type": "uint256"
        }
      ],
      "name": "tokenURI",
      "outputs": [
        {
          "internalType": "string",
          "name": "",
          "type": "string"
        }
      ],
      "stateMutability": "view",
      "type": "function"
    },
    {
      "inputs": [],
      "name": "totalSupply",
      "outputs": [
        {
          "internalType": "uint256",
          "name": "",
          "type": "uint256"
        }
      ],
      "stateMutability": "view",
      "type": "function"
    },
    {
      "inputs": [
        {
          "internalType": "address",
          "name": "from",
          "type": "address"
        },
        {
          "internalType": "address",
          "name": "to",
          "type": "address"
        },
        {
          "internalType": "uint256",
          "name": "tokenId",
          "type": "uint256"
        }
      ],
      "name": "transferFrom",
      "outputs": [],
      "stateMutability": "nonpayable",
      "type": "function"
    },
    {
      "inputs": [
        {
          "internalType": "address",
          "name": "newOwner",
          "type": "address"
        }
      ],
      "name": "transferOwnership",
      "outputs": [],
      "stateMutability": "nonpayable",
      "type": "function"
    },
    {
      "inputs": [],
      "name": "withdraw",
      "outputs": [],
      "stateMutability": "nonpayable",
      "type": "function"
    },
    {
      "stateMutability": "payable",
      "type": "receive"
    }
  ],
  "bytecode": "0x6080604052662386f26fc10000600c556014600e553480156200002157600080fd5b5060405162003cd638038062003cd683398181016040528101906200004791906200047a565b336040518060400160405280600b81526020017f43727970746f20446576730000000000000000000000000000000000000000008152506040518060400160405280600281526020017f43440000000000000000000000000000000000000000000000000000000000008152508160009081620000c591906200072b565b508060019081620000d791906200072b565b505050600073ffffffffffffffffffffffffffffffffffffffff168173ffffffffffffffffffffffffffffffffffffffff16036200014f5760006040517f1e4fbdf700000000000000000000000000000000000000000000000000000000815260040162000146919062000823565b60405180910390fd5b6200016081620001bc60201b60201c565b5081600b90816200017291906200072b565b5080601060006101000a81548173ffffffffffffffffffffffffffffffffffffffff021916908373ffffffffffffffffffffffffffffffffffffffff160217905550505062000840565b6000600a60009054906101000a900473ffffffffffffffffffffffffffffffffffffffff16905081600a60006101000a81548173ffffffffffffffffffffffffffffffffffffffff021916908373ffffffffffffffffffffffffffffffffffffffff1602179055508173ffffffffffffffffffffffffffffffffffffffff168173ffffffffffffffffffffffffffffffffffffffff167f8be0079c531659141344cd1fd0a4f28419497f9722a3daafe3b4186f6b6457e060405160405180910390a35050565b6000604051905090565b600080fd5b600080fd5b600080fd5b600080fd5b6000601f19601f8301169050919050565b7f4e487b7100000000000000000000000000000000000000000000000000000000600052604160045260246000fd5b620002eb82620002a0565b810181811067ffffffffffffffff821117156200030d576200030c620002b1565b5b80604052505050565b60006200032262000282565b9050620003308282620002e0565b919050565b600067ffffffffffffffff821115620003535762000352620002b1565b5b6200035e82620002a0565b9050602081019050919050565b60005b838110156200038b5780820151818401526020810190506200036e565b60008484015250505050565b6000620003ae620003a88462000335565b62000316565b905082815260208101848484011115620003cd57620003cc6200029b565b5b620003da8482856200036b565b509392505050565b600082601f830112620003fa57620003f962000296565b5b81516200040c84826020860162000397565b91505092915050565b600073ffffffffffffffffffffffffffffffffffffffff82169050919050565b6000620004428262000415565b9050919050565b620004548162000435565b81146200046057600080fd5b50565b600081519050620004748162000449565b92915050565b600080604083850312156200049457620004936200028c565b5b600083015167ffffffffffffffff811115620004b557620004b462000291565b5b620004c385828601620003e2565b9250506020620004d68582860162000463565b9150509250929050565b600081519050919050565b7f4e487b7100000000000000000000000000000000000000000000000000000000600052602260045260246000fd5b600060028204905060018216806200053357607f821691505b602082108103620005495762000548620004eb565b5b50919050565b60008190508160005260206000209050919050565b60006020601f8301049050919050565b600082821b905092915050565b600060088302620005b37fffffffffffffffffffffffffffffffffffffffffffffffffffffffffffffffff8262000574565b620005bf868362000574565b95508019841693508086168417925050509392505050565b6000819050919050565b6000819050919050565b60006200060c620006066200060084620005d7565b620005e1565b620005d7565b9050919050565b6000819050919050565b6200062883620005eb565b62000640620006378262000613565b84845462000581565b825550505050565b600090565b6200065762000648565b620006648184846200061d565b505050565b5b818110156200068c57620006806000826200064d565b6001810190506200066a565b5050565b601f821115620006db57620006a5816200054f565b620006b08462000564565b81016020851015620006c0578190505b620006d8620006cf8562000564565b83018262000669565b50505b505050565b600082821c905092915050565b60006200070060001984600802620006e0565b1980831691505092915050565b60006200071b8383620006ed565b9150826002028217905092915050565b6200073682620004e0565b67ffffffffffffffff811115620007525762000751620002b1565b5b6200075e82546200051a565b6200076b82828562000690565b600060209050601f831160018114620007a357600084156200078e578287015190505b6200079a85826200070d565b8655506200080a565b601f198416620007b3866200054f565b60005b82811015620007dd57848901518255600182019150602085019450602081019050620007b6565b86831015620007fd5784890151620007f9601f891682620006ed565b8355505b6001600288020188555050505b505050505050565b6200081d8162000435565b82525050565b60006020820190506200083a600083018462000812565b92915050565b61348680620008506000396000f3fe6080604052600436106101d15760003560e01c80634f6ccce7116100f75780638da5cb5b11610095578063c87b56dd11610064578063c87b56dd1461061a578063e580b2b014610657578063e985e9c514610682578063f2fde38b146106bf576101d8565b80638da5cb5b1461057257806395d89b411461059d578063a22cb465146105c8578063b88d4fde146105f1576101d8565b80636352211e116100d15780636352211e146104b657806370a08231146104f3578063714cff5614610530578063715018a61461055b576101d8565b80634f6ccce71461044457806359533d6c146104815780635f7696211461048b576101d8565b806316c38b3c1161016f57806323b872dd1161013e57806323b872dd1461039e5780632f745c59146103c75780633ccfd60b1461040457806342842e0e1461041b576101d8565b806316c38b3c146102f457806316c61ccc1461031d57806318160ddd14610348578063235b6ea114610373576101d8565b806306fdde03116101ab57806306fdde0314610259578063081812fc14610284578063095ea7b3146102c15780631249c58b146102ea576101d8565b806301ffc9a7146101da57806304549d6f1461021757806304c98b2b14610242576101d8565b366101d857005b005b3480156101e657600080fd5b5061020160048036038101906101fc919061277a565b6106e8565b60405161020e91906127c2565b60405180910390f35b34801561022357600080fd5b5061022c610762565b60405161023991906127c2565b60405180910390f35b34801561024e57600080fd5b50610257610775565b005b34801561026557600080fd5b5061026e6107ae565b60405161027b919061286d565b60405180910390f35b34801561029057600080fd5b506102ab60048036038101906102a691906128c5565b610840565b6040516102b89190612933565b60405180910390f35b3480156102cd57600080fd5b506102e860048036038101906102e3919061297a565b61085c565b005b6102f2610872565b005b34801561030057600080fd5b5061031b600480360381019061031691906129e6565b6109d2565b005b34801561032957600080fd5b506103326109f7565b60405161033f91906127c2565b60405180910390f35b34801561035457600080fd5b5061035d610a0a565b60405161036a9190612a22565b60405180910390f35b34801561037f57600080fd5b50610388610a17565b6040516103959190612a22565b60405180910390f35b3480156103aa57600080fd5b506103c560048036038101906103c09190612a3d565b610a1d565b005b3480156103d357600080fd5b506103ee60048036038101906103e9919061297a565b610b1f565b6040516103fb9190612a22565b60405180910390f35b34801561041057600080fd5b50610419610bc8565b005b34801561042757600080fd5b50610442600480360381019061043d9190612a3d565b610c92565b005b34801561045057600080fd5b5061046b600480360381019061046691906128c5565b610cb2565b6040516104789190612a22565b60405180910390f35b610489610d28565b005b34801561049757600080fd5b506104a0610f62565b6040516104ad9190612a22565b60405180910390f35b3480156104c257600080fd5b506104dd60048036038101906104d891906128c5565b610f68565b6040516104ea9190612933565b60405180910390f35b3480156104ff57600080fd5b5061051a60048036038101906105159190612a90565b610f7a565b6040516105279190612a22565b60405180910390f35b34801561053c57600080fd5b50610545611034565b6040516105529190612a22565b60405180910390f35b34801561056757600080fd5b5061057061103a565b005b34801561057e57600080fd5b5061058761104e565b6040516105949190612933565b60405180910390f35b3480156105a957600080fd5b506105b2611078565b6040516105bf919061286d565b60405180910390f35b3480156105d457600080fd5b506105ef60048036038101906105ea9190612abd565b61110a565b005b3480156105fd57600080fd5b5061061860048036038101906106139190612c32565b611120565b005b34801561062657600080fd5b50610641600480360381019061063c91906128c5565b61113d565b60405161064e919061286d565b60405180910390f35b34801561066357600080fd5b5061066c6111a6565b6040516106799190612a22565b60405180910390f35b34801561068e57600080fd5b506106a960048036038101906106a49190612cb5565b6111ac565b6040516106b691906127c2565b60405180910390f35b3480156106cb57600080fd5b506106e660048036038101906106e19190612a90565b611240565b005b60007f780e9d63000000000000000000000000000000000000000000000000000000007bffffffffffffffffffffffffffffffffffffffffffffffffffffffff1916827bffffffffffffffffffffffffffffffffffffffffffffffffffffffff1916148061075b575061075a826112c6565b5b9050919050565b601060149054906101000a900460ff1681565b61077d6113a8565b6001601060146101000a81548160ff02191690831515021790555061012c426107a69190612d24565b601181905550565b6060600080546107bd90612d87565b80601f01602080910402602001604051908101604052809291908181526020018280546107e990612d87565b80156108365780601f1061080b57610100808354040283529160200191610836565b820191906000526020600020905b81548152906001019060200180831161081957829003601f168201915b5050505050905090565b600061084b8261142f565b50610855826114b7565b9050919050565b61086e82826108696114f4565b6114fc565b5050565b600d60009054906101000a900460ff16156108c2576040517f08c379a00000000000000000000000000000000000000000000000000000000081526004016108b990612e04565b60405180910390fd5b601060149054906101000a900460ff1680156108e057506011544210155b61091f576040517f08c379a000000000000000000000000000000000000000000000000000000000815260040161091690612e70565b60405180910390fd5b600e54600f5410610965576040517f08c379a000000000000000000000000000000000000000000000000000000000815260040161095c90612f02565b60405180910390fd5b600c543410156109aa576040517f08c379a00000000000000000000000000000000000000000000000000000000081526004016109a190612f6e565b60405180910390fd5b6001600f60008282546109bd9190612d24565b925050819055506109d033600f5461150e565b565b6109da6113a8565b80600d60006101000a81548160ff02191690831515021790555050565b600d60009054906101000a900460ff1681565b6000600880549050905090565b600c5481565b600073ffffffffffffffffffffffffffffffffffffffff168273ffffffffffffffffffffffffffffffffffffffff1603610a8f5760006040517f64a0ae92000000000000000000000000000000000000000000000000000000008152600401610a869190612933565b60405180910390fd5b6000610aa38383610a9e6114f4565b61152c565b90508373ffffffffffffffffffffffffffffffffffffffff168173ffffffffffffffffffffffffffffffffffffffff1614610b19578382826040517f64283d7b000000000000000000000000000000000000000000000000000000008152600401610b1093929190612f8e565b60405180910390fd5b50505050565b6000610b2a83610f7a565b8210610b6f5782826040517fa57d13dc000000000000000000000000000000000000000000000000000000008152600401610b66929190612fc5565b60405180910390fd5b600660008473ffffffffffffffffffffffffffffffffffffffff1673ffffffffffffffffffffffffffffffffffffffff168152602001908152602001600020600083815260200190815260200160002054905092915050565b610bd06113a8565b6000610bda61104e565b9050600047905060008273ffffffffffffffffffffffffffffffffffffffff1682604051610c079061301f565b60006040518083038185875af1925050503d8060008114610c44576040519150601f19603f3d011682016040523d82523d6000602084013e610c49565b606091505b5050905080610c8d576040517f08c379a0000000000000000000000000000000000000000000000000000000008152600401610c8490613080565b60405180910390fd5b505050565b610cad83838360405180602001604052806000815250611120565b505050565b6000610cbc610a0a565b8210610d02576000826040517fa57d13dc000000000000000000000000000000000000000000000000000000008152600401610cf9929190612fc5565b60405180910390fd5b60088281548110610d1657610d156130a0565b5b90600052602060002001549050919050565b600d60009054906101000a900460ff1615610d78576040517f08c379a0000000000000000000000000000000000000000000000000000000008152600401610d6f90612e04565b60405180910390fd5b601060149054906101000a900460ff168015610d95575060115442105b610dd4576040517f08c379a0000000000000000000000000000000000000000000000000000000008152600401610dcb9061311b565b60405180910390fd5b601060009054906101000a900473ffffffffffffffffffffffffffffffffffffffff1673ffffffffffffffffffffffffffffffffffffffff166306c933d8336040518263ffffffff1660e01b8152600401610e2f9190612933565b602060405180830381865afa158015610e4c573d6000803e3d6000fd5b505050506040513d601f19601f82011682018060405250810190610e709190613150565b610eaf576040517f08c379a0000000000000000000000000000000000000000000000000000000008152600401610ea6906131c9565b60405180910390fd5b600e54600f5410610ef5576040517f08c379a0000000000000000000000000000000000000000000000000000000008152600401610eec9061325b565b60405180910390fd5b600c54341015610f3a576040517f08c379a0000000000000000000000000000000000000000000000000000000008152600401610f3190612f6e565b60405180910390fd5b6001600f6000828254610f4d9190612d24565b92505081905550610f6033600f5461150e565b565b600e5481565b6000610f738261142f565b9050919050565b60008073ffffffffffffffffffffffffffffffffffffffff168273ffffffffffffffffffffffffffffffffffffffff1603610fed5760006040517f89c62b64000000000000000000000000000000000000000000000000000000008152600401610fe49190612933565b60405180910390fd5b600360008373ffffffffffffffffffffffffffffffffffffffff1673ffffffffffffffffffffffffffffffffffffffff168152602001908152602001600020549050919050565b600f5481565b6110426113a8565b61104c6000611649565b565b6000600a60009054906101000a900473ffffffffffffffffffffffffffffffffffffffff16905090565b60606001805461108790612d87565b80601f01602080910402602001604051908101604052809291908181526020018280546110b390612d87565b80156111005780601f106110d557610100808354040283529160200191611100565b820191906000526020600020905b8154815290600101906020018083116110e357829003601f168201915b5050505050905090565b61111c6111156114f4565b838361170f565b5050565b61112b848484610a1d565b6111378484848461187e565b50505050565b60606111488261142f565b506000611153611a35565b90506000815111611173576040518060200160405280600081525061119e565b8061117d84611ac7565b60405160200161118e9291906132b7565b6040516020818303038152906040525b915050919050565b60115481565b6000600560008473ffffffffffffffffffffffffffffffffffffffff1673ffffffffffffffffffffffffffffffffffffffff16815260200190815260200160002060008373ffffffffffffffffffffffffffffffffffffffff1673ffffffffffffffffffffffffffffffffffffffff16815260200190815260200160002060009054906101000a900460ff16905092915050565b6112486113a8565b600073ffffffffffffffffffffffffffffffffffffffff168173ffffffffffffffffffffffffffffffffffffffff16036112ba5760006040517f1e4fbdf70000000000000000000000000000000000000000000000000000000081526004016112b19190612933565b60405180910390fd5b6112c381611649565b50565b60007f80ac58cd000000000000000000000000000000000000000000000000000000007bffffffffffffffffffffffffffffffffffffffffffffffffffffffff1916827bffffffffffffffffffffffffffffffffffffffffffffffffffffffff1916148061139157507f5b5e139f000000000000000000000000000000000000000000000000000000007bffffffffffffffffffffffffffffffffffffffffffffffffffffffff1916827bffffffffffffffffffffffffffffffffffffffffffffffffffffffff1916145b806113a157506113a082611b95565b5b9050919050565b6113b06114f4565b73ffffffffffffffffffffffffffffffffffffffff166113ce61104e565b73ffffffffffffffffffffffffffffffffffffffff161461142d576113f16114f4565b6040517f118cdaa70000000000000000000000000000000000000000000000000000000081526004016114249190612933565b60405180910390fd5b565b60008061143b83611bff565b9050600073ffffffffffffffffffffffffffffffffffffffff168173ffffffffffffffffffffffffffffffffffffffff16036114ae57826040517f7e2732890000000000000000000000000000000000000000000000000000000081526004016114a59190612a22565b60405180910390fd5b80915050919050565b60006004600083815260200190815260200160002060009054906101000a900473ffffffffffffffffffffffffffffffffffffffff169050919050565b600033905090565b6115098383836001611c3c565b505050565b611528828260405180602001604052806000815250611e01565b5050565b60008061153a858585611e1d565b9050600073ffffffffffffffffffffffffffffffffffffffff168173ffffffffffffffffffffffffffffffffffffffff160361157e5761157984612037565b6115bd565b8473ffffffffffffffffffffffffffffffffffffffff168173ffffffffffffffffffffffffffffffffffffffff16146115bc576115bb8185612080565b5b5b600073ffffffffffffffffffffffffffffffffffffffff168573ffffffffffffffffffffffffffffffffffffffff16036115ff576115fa846121e1565b61163e565b8473ffffffffffffffffffffffffffffffffffffffff168173ffffffffffffffffffffffffffffffffffffffff161461163d5761163c85856122b2565b5b5b809150509392505050565b6000600a60009054906101000a900473ffffffffffffffffffffffffffffffffffffffff16905081600a60006101000a81548173ffffffffffffffffffffffffffffffffffffffff021916908373ffffffffffffffffffffffffffffffffffffffff1602179055508173ffffffffffffffffffffffffffffffffffffffff168173ffffffffffffffffffffffffffffffffffffffff167f8be0079c531659141344cd1fd0a4f28419497f9722a3daafe3b4186f6b6457e060405160405180910390a35050565b600073ffffffffffffffffffffffffffffffffffffffff168273ffffffffffffffffffffffffffffffffffffffff160361178057816040517f5b08ba180000000000000000000000000000000000000000000000000000000081526004016117779190612933565b60405180910390fd5b80600560008573ffffffffffffffffffffffffffffffffffffffff1673ffffffffffffffffffffffffffffffffffffffff16815260200190815260200160002060008473ffffffffffffffffffffffffffffffffffffffff1673ffffffffffffffffffffffffffffffffffffffff16815260200190815260200160002060006101000a81548160ff0219169083151502179055508173ffffffffffffffffffffffffffffffffffffffff168373ffffffffffffffffffffffffffffffffffffffff167f17307eab39ab6107e8899845ad3d59bd9653f200f220920489ca2b5937696c318360405161187191906127c2565b60405180910390a3505050565b60008373ffffffffffffffffffffffffffffffffffffffff163b1115611a2f578273ffffffffffffffffffffffffffffffffffffffff1663150b7a026118c26114f4565b8685856040518563ffffffff1660e01b81526004016118e49493929190613330565b6020604051808303816000875af192505050801561192057506040513d601f19601f8201168201806040525081019061191d9190613391565b60015b6119a4573d8060008114611950576040519150601f19603f3d011682016040523d82523d6000602084013e611955565b606091505b50600081510361199c57836040517f64a0ae920000000000000000000000000000000000000000000000000000000081526004016119939190612933565b60405180910390fd5b805181602001fd5b63150b7a0260e01b7bffffffffffffffffffffffffffffffffffffffffffffffffffffffff1916817bffffffffffffffffffffffffffffffffffffffffffffffffffffffff191614611a2d57836040517f64a0ae92000000000000000000000000000000000000000000000000000000008152600401611a249190612933565b60405180910390fd5b505b50505050565b6060600b8054611a4490612d87565b80601f0160208091040260200160405190810160405280929190818152602001828054611a7090612d87565b8015611abd5780601f10611a9257610100808354040283529160200191611abd565b820191906000526020600020905b815481529060010190602001808311611aa057829003601f168201915b5050505050905090565b606060006001611ad68461233d565b01905060008167ffffffffffffffff811115611af557611af4612b07565b5b6040519080825280601f01601f191660200182016040528015611b275781602001600182028036833780820191505090505b509050600082602001820190505b600115611b8a578080600190039150507f3031323334353637383961626364656600000000000000000000000000000000600a86061a8153600a8581611b7e57611b7d6133be565b5b04945060008503611b35575b819350505050919050565b60007f01ffc9a7000000000000000000000000000000000000000000000000000000007bffffffffffffffffffffffffffffffffffffffffffffffffffffffff1916827bffffffffffffffffffffffffffffffffffffffffffffffffffffffff1916149050919050565b60006002600083815260200190815260200160002060009054906101000a900473ffffffffffffffffffffffffffffffffffffffff169050919050565b8080611c755750600073ffffffffffffffffffffffffffffffffffffffff168273ffffffffffffffffffffffffffffffffffffffff1614155b15611da9576000611c858461142f565b9050600073ffffffffffffffffffffffffffffffffffffffff168373ffffffffffffffffffffffffffffffffffffffff1614158015611cf057508273ffffffffffffffffffffffffffffffffffffffff168173ffffffffffffffffffffffffffffffffffffffff1614155b8015611d035750611d0181846111ac565b155b15611d4557826040517fa9fbf51f000000000000000000000000000000000000000000000000000000008152600401611d3c9190612933565b60405180910390fd5b8115611da757838573ffffffffffffffffffffffffffffffffffffffff168273ffffffffffffffffffffffffffffffffffffffff167f8c5be1e5ebec7d5bd14f71427d1e84f3dd0314c0f7b2291e5b200ac8c7c3b92560405160405180910390a45b505b836004600085815260200190815260200160002060006101000a81548173ffffffffffffffffffffffffffffffffffffffff021916908373ffffffffffffffffffffffffffffffffffffffff16021790555050505050565b611e0b8383612490565b611e18600084848461187e565b505050565b600080611e2984611bff565b9050600073ffffffffffffffffffffffffffffffffffffffff168373ffffffffffffffffffffffffffffffffffffffff1614611e6b57611e6a818486612589565b5b600073ffffffffffffffffffffffffffffffffffffffff168173ffffffffffffffffffffffffffffffffffffffff1614611efc57611ead600085600080611c3c565b6001600360008373ffffffffffffffffffffffffffffffffffffffff1673ffffffffffffffffffffffffffffffffffffffff168152602001908152602001600020600082825403925050819055505b600073ffffffffffffffffffffffffffffffffffffffff168573ffffffffffffffffffffffffffffffffffffffff1614611f7f576001600360008773ffffffffffffffffffffffffffffffffffffffff1673ffffffffffffffffffffffffffffffffffffffff168152602001908152602001600020600082825401925050819055505b846002600086815260200190815260200160002060006101000a81548173ffffffffffffffffffffffffffffffffffffffff021916908373ffffffffffffffffffffffffffffffffffffffff160217905550838573ffffffffffffffffffffffffffffffffffffffff168273ffffffffffffffffffffffffffffffffffffffff167fddf252ad1be2c89b69c2b068fc378daa952ba7f163c4a11628f55a4df523b3ef60405160405180910390a4809150509392505050565b6008805490506009600083815260200190815260200160002081905550600881908060018154018082558091505060019003906000526020600020016000909190919091505550565b600061208b83610f7a565b9050600060076000848152602001908152602001600020549050818114612170576000600660008673ffffffffffffffffffffffffffffffffffffffff1673ffffffffffffffffffffffffffffffffffffffff168152602001908152602001600020600084815260200190815260200160002054905080600660008773ffffffffffffffffffffffffffffffffffffffff1673ffffffffffffffffffffffffffffffffffffffff168152602001908152602001600020600084815260200190815260200160002081905550816007600083815260200190815260200160002081905550505b6007600084815260200190815260200160002060009055600660008573ffffffffffffffffffffffffffffffffffffffff1673ffffffffffffffffffffffffffffffffffffffff16815260200190815260200160002060008381526020019081526020016000206000905550505050565b600060016008805490506121f591906133ed565b9050600060096000848152602001908152602001600020549050600060088381548110612225576122246130a0565b5b906000526020600020015490508060088381548110612247576122466130a0565b5b90600052602060002001819055508160096000838152602001908152602001600020819055506009600085815260200190815260200160002060009055600880548061229657612295613421565b5b6001900381819060005260206000200160009055905550505050565b600060016122bf84610f7a565b6122c991906133ed565b905081600660008573ffffffffffffffffffffffffffffffffffffffff1673ffffffffffffffffffffffffffffffffffffffff168152602001908152602001600020600083815260200190815260200160002081905550806007600084815260200190815260200160002081905550505050565b600080600090507a184f03e93ff9f4daa797ed6e38ed64bf6a1f010000000000000000831061239b577a184f03e93ff9f4daa797ed6e38ed64bf6a1f0100000000000000008381612391576123906133be565b5b0492506040810190505b6d04ee2d6d415b85acef810000000083106123d8576d04ee2d6d415b85acef810000000083816123ce576123cd6133be565b5b0492506020810190505b662386f26fc10000831061240757662386f26fc1000083816123fd576123fc6133be565b5b0492506010810190505b6305f5e1008310612430576305f5e1008381612426576124256133be565b5b0492506008810190505b612710831061245557612710838161244b5761244a6133be565b5b0492506004810190505b60648310612478576064838161246e5761246d6133be565b5b0492506002810190505b600a8310612487576001810190505b80915050919050565b600073ffffffffffffffffffffffffffffffffffffffff168273ffffffffffffffffffffffffffffffffffffffff16036125025760006040517f64a0ae920000000000000000000000000000000000000000000000000000000081526004016124f99190612933565b60405180910390fd5b60006125108383600061152c565b9050600073ffffffffffffffffffffffffffffffffffffffff168173ffffffffffffffffffffffffffffffffffffffff16146125845760006040517f73c6ac6e00000000000000000000000000000000000000000000000000000000815260040161257b9190612933565b60405180910390fd5b505050565b61259483838361264d565b61264857600073ffffffffffffffffffffffffffffffffffffffff168373ffffffffffffffffffffffffffffffffffffffff160361260957806040517f7e2732890000000000000000000000000000000000000000000000000000000081526004016126009190612a22565b60405180910390fd5b81816040517f177e802f00000000000000000000000000000000000000000000000000000000815260040161263f929190612fc5565b60405180910390fd5b505050565b60008073ffffffffffffffffffffffffffffffffffffffff168373ffffffffffffffffffffffffffffffffffffffff161415801561270557508273ffffffffffffffffffffffffffffffffffffffff168473ffffffffffffffffffffffffffffffffffffffff1614806126c657506126c584846111ac565b5b8061270457508273ffffffffffffffffffffffffffffffffffffffff166126ec836114b7565b73ffffffffffffffffffffffffffffffffffffffff16145b5b90509392505050565b6000604051905090565b600080fd5b600080fd5b60007fffffffff0000000000000000000000000000000000000000000000000000000082169050919050565b61275781612722565b811461276257600080fd5b50565b6000813590506127748161274e565b92915050565b6000602082840312156127905761278f612718565b5b600061279e84828501612765565b91505092915050565b60008115159050919050565b6127bc816127a7565b82525050565b60006020820190506127d760008301846127b3565b92915050565b600081519050919050565b600082825260208201905092915050565b60005b838110156128175780820151818401526020810190506127fc565b60008484015250505050565b6000601f19601f8301169050919050565b600061283f826127dd565b61284981856127e8565b93506128598185602086016127f9565b61286281612823565b840191505092915050565b600060208201905081810360008301526128878184612834565b905092915050565b6000819050919050565b6128a28161288f565b81146128ad57600080fd5b50565b6000813590506128bf81612899565b92915050565b6000602082840312156128db576128da612718565b5b60006128e9848285016128b0565b91505092915050565b600073ffffffffffffffffffffffffffffffffffffffff82169050919050565b600061291d826128f2565b9050919050565b61292d81612912565b82525050565b60006020820190506129486000830184612924565b92915050565b61295781612912565b811461296257600080fd5b50565b6000813590506129748161294e565b92915050565b6000806040838503121561299157612990612718565b5b600061299f85828601612965565b92505060206129b0858286016128b0565b9150509250929050565b6129c3816127a7565b81146129ce57600080fd5b50565b6000813590506129e0816129ba565b92915050565b6000602082840312156129fc576129fb612718565b5b6000612a0a848285016129d1565b91505092915050565b612a1c8161288f565b82525050565b6000602082019050612a376000830184612a13565b92915050565b600080600060608486031215612a5657612a55612718565b5b6000612a6486828701612965565b9350506020612a7586828701612965565b9250506040612a86868287016128b0565b9150509250925092565b600060208284031215612aa657612aa5612718565b5b6000612ab484828501612965565b91505092915050565b60008060408385031215612ad457612ad3612718565b5b6000612ae285828601612965565b9250506020612af3858286016129d1565b9150509250929050565b600080fd5b600080fd5b7f4e487b7100000000000000000000000000000000000000000000000000000000600052604160045260246000fd5b612b3f82612823565b810181811067ffffffffffffffff82111715612b5e57612b5d612b07565b5b80604052505050565b6000612b7161270e565b9050612b7d8282612b36565b919050565b600067ffffffffffffffff821115612b9d57612b9c612b07565b5b612ba682612823565b9050602081019050919050565b82818337600083830152505050565b6000612bd5612bd084612b82565b612b67565b905082815260208101848484011115612bf157612bf0612b02565b5b612bfc848285612bb3565b509392505050565b600082601f830112612c1957612c18612afd565b5b8135612c29848260208601612bc2565b91505092915050565b60008060008060808587031215612c4c57612c4b612718565b5b6000612c5a87828801612965565b9450506020612c6b87828801612965565b9350506040612c7c878288016128b0565b925050606085013567ffffffffffffffff811115612c9d57612c9c61271d565b5b612ca987828801612c04565b91505092959194509250565b60008060408385031215612ccc57612ccb612718565b5b6000612cda85828601612965565b9250506020612ceb85828601612965565b9150509250929050565b7f4e487b7100000000000000000000000000000000000000000000000000000000600052601160045260246000fd5b6000612d2f8261288f565b9150612d3a8361288f565b9250828201905080821115612d5257612d51612cf5565b5b92915050565b7f4e487b7100000000000000000000000000000000000000000000000000000000600052602260045260246000fd5b60006002820490506001821680612d9f57607f821691505b602082108103612db257612db1612d58565b5b50919050565b7f436f6e74726163742063757272656e746c792070617573656400000000000000600082015250565b6000612dee6019836127e8565b9150612df982612db8565b602082019050919050565b60006020820190508181036000830152612e1d81612de1565b9050919050565b7f50726573616c6520686173206e6f7420656e6465642079657400000000000000600082015250565b6000612e5a6019836127e8565b9150612e6582612e24565b602082019050919050565b60006020820190508181036000830152612e8981612e4d565b9050919050565b7f457863656564206d6178696d756d2043727970746f204465767320737570706c60008201527f7900000000000000000000000000000000000000000000000000000000000000602082015250565b6000612eec6021836127e8565b9150612ef782612e90565b604082019050919050565b60006020820190508181036000830152612f1b81612edf565b9050919050565b7f45746865722073656e74206973206e6f7420636f727265637400000000000000600082015250565b6000612f586019836127e8565b9150612f6382612f22565b602082019050919050565b60006020820190508181036000830152612f8781612f4b565b9050919050565b6000606082019050612fa36000830186612924565b612fb06020830185612a13565b612fbd6040830184612924565b949350505050565b6000604082019050612fda6000830185612924565b612fe76020830184612a13565b9392505050565b600081905092915050565b50565b6000613009600083612fee565b915061301482612ff9565b600082019050919050565b600061302a82612ffc565b9150819050919050565b7f4661696c656420746f2073656e64204574686572000000000000000000000000600082015250565b600061306a6014836127e8565b915061307582613034565b602082019050919050565b600060208201905081810360008301526130998161305d565b9050919050565b7f4e487b7100000000000000000000000000000000000000000000000000000000600052603260045260246000fd5b7f50726573616c65206973206e6f742072756e6e696e6700000000000000000000600082015250565b60006131056016836127e8565b9150613110826130cf565b602082019050919050565b60006020820190508181036000830152613134816130f8565b9050919050565b60008151905061314a816129ba565b92915050565b60006020828403121561316657613165612718565b5b60006131748482850161313b565b91505092915050565b7f596f7520617265206e6f742077686974656c6973746564000000000000000000600082015250565b60006131b36017836127e8565b91506131be8261317d565b602082019050919050565b600060208201905081810360008301526131e2816131a6565b9050919050565b7f4578636565646564206d6178696d756d2043727970746f20446576732073757060008201527f706c790000000000000000000000000000000000000000000000000000000000602082015250565b60006132456023836127e8565b9150613250826131e9565b604082019050919050565b6000602082019050818103600083015261327481613238565b9050919050565b600081905092915050565b6000613291826127dd565b61329b818561327b565b93506132ab8185602086016127f9565b80840191505092915050565b60006132c38285613286565b91506132cf8284613286565b91508190509392505050565b600081519050919050565b600082825260208201905092915050565b6000613302826132db565b61330c81856132e6565b935061331c8185602086016127f9565b61332581612823565b840191505092915050565b60006080820190506133456000830187612924565b6133526020830186612924565b61335f6040830185612a13565b818103606083015261337181846132f7565b905095945050505050565b60008151905061338b8161274e565b92915050565b6000602082840312156133a7576133a6612718565b5b60006133b58482850161337c565b91505092915050565b7f4e487b7100000000000000000000000000000000000000000000000000000000600052601260045260246000fd5b60006133f88261288f565b91506134038361288f565b925082820390508181111561341b5761341a612cf5565b5b92915050565b7f4e487b7100000000000000000000000000000000000000000000000000000000600052603160045260246000fdfea26469706673582212203b0b0f4d2db8b6026b69da7adec80b0544378611c6f876c8987cb31c5f59f0b864736f6c63430008140033",
  "linkReferences": {},
  "deployedLinkReferences": {}
}